{
	"klaytn ide/count.sol": {
		"Count": {
			"abi": [
				{
					"constant": true,
					"inputs": [],
					"name": "count",
					"outputs": [
						{
							"name": "",
							"type": "uint256"
						}
					],
					"payable": false,
					"stateMutability": "view",
					"type": "function"
				},
				{
					"constant": true,
					"inputs": [],
					"name": "getBlockNumber",
					"outputs": [
						{
							"name": "",
							"type": "uint256"
						}
					],
					"payable": false,
					"stateMutability": "view",
					"type": "function"
				},
				{
					"constant": false,
					"inputs": [
						{
							"name": "_count",
							"type": "uint256"
						}
					],
					"name": "setCount",
					"outputs": [],
					"payable": false,
					"stateMutability": "nonpayable",
					"type": "function"
				}
			],
			"devdoc": {
				"methods": {}
			},
			"evm": {
				"assembly": "    /* \"klaytn ide/count.sol\":87:441  contract Count {... */\n  mstore(0x40, 0x80)\n    /* \"klaytn ide/count.sol\":179:180  0 */\n  0x0\n    /* \"klaytn ide/count.sol\":156:180  uint256 public count = 0 */\n  dup1\n  sstore\n    /* \"klaytn ide/count.sol\":87:441  contract Count {... */\n  callvalue\n    /* \"--CODEGEN--\":8:17   */\n  dup1\n    /* \"--CODEGEN--\":5:7   */\n  iszero\n  tag_1\n  jumpi\n    /* \"--CODEGEN--\":30:31   */\n  0x0\n    /* \"--CODEGEN--\":27:28   */\n  dup1\n    /* \"--CODEGEN--\":20:32   */\n  revert\n    /* \"--CODEGEN--\":5:7   */\ntag_1:\n    /* \"klaytn ide/count.sol\":87:441  contract Count {... */\n  pop\n  dataSize(sub_0)\n  dup1\n  dataOffset(sub_0)\n  0x0\n  codecopy\n  0x0\n  return\nstop\n\nsub_0: assembly {\n        /* \"klaytn ide/count.sol\":87:441  contract Count {... */\n      mstore(0x40, 0x80)\n      jumpi(tag_1, lt(calldatasize, 0x4))\n      calldataload(0x0)\n      0x100000000000000000000000000000000000000000000000000000000\n      swap1\n      div\n      0xffffffff\n      and\n      dup1\n      0x6661abd\n      eq\n      tag_2\n      jumpi\n      dup1\n      0x42cbb15c\n      eq\n      tag_3\n      jumpi\n      dup1\n      0xd14e62b8\n      eq\n      tag_4\n      jumpi\n    tag_1:\n      0x0\n      dup1\n      revert\n        /* \"klaytn ide/count.sol\":156:180  uint256 public count = 0 */\n    tag_2:\n      callvalue\n        /* \"--CODEGEN--\":8:17   */\n      dup1\n        /* \"--CODEGEN--\":5:7   */\n      iszero\n      tag_5\n      jumpi\n        /* \"--CODEGEN--\":30:31   */\n      0x0\n        /* \"--CODEGEN--\":27:28   */\n      dup1\n        /* \"--CODEGEN--\":20:32   */\n      revert\n        /* \"--CODEGEN--\":5:7   */\n    tag_5:\n        /* \"klaytn ide/count.sol\":156:180  uint256 public count = 0 */\n      pop\n      tag_6\n      jump(tag_7)\n    tag_6:\n      mload(0x40)\n      dup1\n      dup3\n      dup2\n      mstore\n      0x20\n      add\n      swap2\n      pop\n      pop\n      mload(0x40)\n      dup1\n      swap2\n      sub\n      swap1\n      return\n        /* \"klaytn ide/count.sol\":227:317  function getBlockNumber() public view returns (uint256) {... */\n    tag_3:\n      callvalue\n        /* \"--CODEGEN--\":8:17   */\n      dup1\n        /* \"--CODEGEN--\":5:7   */\n      iszero\n      tag_8\n      jumpi\n        /* \"--CODEGEN--\":30:31   */\n      0x0\n        /* \"--CODEGEN--\":27:28   */\n      dup1\n        /* \"--CODEGEN--\":20:32   */\n      revert\n        /* \"--CODEGEN--\":5:7   */\n    tag_8:\n        /* \"klaytn ide/count.sol\":227:317  function getBlockNumber() public view returns (uint256) {... */\n      pop\n      tag_9\n      jump(tag_10)\n    tag_9:\n      mload(0x40)\n      dup1\n      dup3\n      dup2\n      mstore\n      0x20\n      add\n      swap2\n      pop\n      pop\n      mload(0x40)\n      dup1\n      swap2\n      sub\n      swap1\n      return\n        /* \"klaytn ide/count.sol\":369:439  function setCount(uint256 _count) public {... */\n    tag_4:\n      callvalue\n        /* \"--CODEGEN--\":8:17   */\n      dup1\n        /* \"--CODEGEN--\":5:7   */\n      iszero\n      tag_11\n      jumpi\n        /* \"--CODEGEN--\":30:31   */\n      0x0\n        /* \"--CODEGEN--\":27:28   */\n      dup1\n        /* \"--CODEGEN--\":20:32   */\n      revert\n        /* \"--CODEGEN--\":5:7   */\n    tag_11:\n        /* \"klaytn ide/count.sol\":369:439  function setCount(uint256 _count) public {... */\n      pop\n      tag_12\n      0x4\n      dup1\n      calldatasize\n      sub\n        /* \"--CODEGEN--\":13:15   */\n      0x20\n        /* \"--CODEGEN--\":8:11   */\n      dup2\n        /* \"--CODEGEN--\":5:16   */\n      lt\n        /* \"--CODEGEN--\":2:4   */\n      iszero\n      tag_13\n      jumpi\n        /* \"--CODEGEN--\":29:30   */\n      0x0\n        /* \"--CODEGEN--\":26:27   */\n      dup1\n        /* \"--CODEGEN--\":19:31   */\n      revert\n        /* \"--CODEGEN--\":2:4   */\n    tag_13:\n        /* \"klaytn ide/count.sol\":369:439  function setCount(uint256 _count) public {... */\n      dup2\n      add\n      swap1\n      dup1\n      dup1\n      calldataload\n      swap1\n      0x20\n      add\n      swap1\n      swap3\n      swap2\n      swap1\n      pop\n      pop\n      pop\n      jump(tag_14)\n    tag_12:\n      stop\n        /* \"klaytn ide/count.sol\":156:180  uint256 public count = 0 */\n    tag_7:\n      sload(0x0)\n      dup2\n      jump\t// out\n        /* \"klaytn ide/count.sol\":227:317  function getBlockNumber() public view returns (uint256) {... */\n    tag_10:\n        /* \"klaytn ide/count.sol\":274:281  uint256 */\n      0x0\n        /* \"klaytn ide/count.sol\":298:310  block.number */\n      number\n        /* \"klaytn ide/count.sol\":291:310  return block.number */\n      swap1\n      pop\n        /* \"klaytn ide/count.sol\":227:317  function getBlockNumber() public view returns (uint256) {... */\n      swap1\n      jump\t// out\n        /* \"klaytn ide/count.sol\":369:439  function setCount(uint256 _count) public {... */\n    tag_14:\n        /* \"klaytn ide/count.sol\":426:432  _count */\n      dup1\n        /* \"klaytn ide/count.sol\":418:423  count */\n      0x0\n        /* \"klaytn ide/count.sol\":418:432  count = _count */\n      dup2\n      swap1\n      sstore\n      pop\n        /* \"klaytn ide/count.sol\":369:439  function setCount(uint256 _count) public {... */\n      pop\n      jump\t// out\n\n    auxdata: 0xa165627a7a72305820596150d0554fccceecfaa6126c37439d8e227cd8da70712d407d58cea0552e2b0029\n}\n",
				"bytecode": {
					"linkReferences": {},
					"object": "60806040526000805534801561001457600080fd5b50610123806100246000396000f3fe6080604052600436106053576000357c0100000000000000000000000000000000000000000000000000000000900463ffffffff16806306661abd14605857806342cbb15c146080578063d14e62b81460a8575b600080fd5b348015606357600080fd5b50606a60df565b6040518082815260200191505060405180910390f35b348015608b57600080fd5b50609260e5565b6040518082815260200191505060405180910390f35b34801560b357600080fd5b5060dd6004803603602081101560c857600080fd5b810190808035906020019092919050505060ed565b005b60005481565b600043905090565b806000819055505056fea165627a7a72305820596150d0554fccceecfaa6126c37439d8e227cd8da70712d407d58cea0552e2b0029",
					"opcodes": "PUSH1 0x80 PUSH1 0x40 MSTORE PUSH1 0x0 DUP1 SSTORE CALLVALUE DUP1 ISZERO PUSH2 0x14 JUMPI PUSH1 0x0 DUP1 REVERT JUMPDEST POP PUSH2 0x123 DUP1 PUSH2 0x24 PUSH1 0x0 CODECOPY PUSH1 0x0 RETURN INVALID PUSH1 0x80 PUSH1 0x40 MSTORE PUSH1 0x4 CALLDATASIZE LT PUSH1 0x53 JUMPI PUSH1 0x0 CALLDATALOAD PUSH29 0x100000000000000000000000000000000000000000000000000000000 SWAP1 DIV PUSH4 0xFFFFFFFF AND DUP1 PUSH4 0x6661ABD EQ PUSH1 0x58 JUMPI DUP1 PUSH4 0x42CBB15C EQ PUSH1 0x80 JUMPI DUP1 PUSH4 0xD14E62B8 EQ PUSH1 0xA8 JUMPI JUMPDEST PUSH1 0x0 DUP1 REVERT JUMPDEST CALLVALUE DUP1 ISZERO PUSH1 0x63 JUMPI PUSH1 0x0 DUP1 REVERT JUMPDEST POP PUSH1 0x6A PUSH1 0xDF JUMP JUMPDEST PUSH1 0x40 MLOAD DUP1 DUP3 DUP2 MSTORE PUSH1 0x20 ADD SWAP2 POP POP PUSH1 0x40 MLOAD DUP1 SWAP2 SUB SWAP1 RETURN JUMPDEST CALLVALUE DUP1 ISZERO PUSH1 0x8B JUMPI PUSH1 0x0 DUP1 REVERT JUMPDEST POP PUSH1 0x92 PUSH1 0xE5 JUMP JUMPDEST PUSH1 0x40 MLOAD DUP1 DUP3 DUP2 MSTORE PUSH1 0x20 ADD SWAP2 POP POP PUSH1 0x40 MLOAD DUP1 SWAP2 SUB SWAP1 RETURN JUMPDEST CALLVALUE DUP1 ISZERO PUSH1 0xB3 JUMPI PUSH1 0x0 DUP1 REVERT JUMPDEST POP PUSH1 0xDD PUSH1 0x4 DUP1 CALLDATASIZE SUB PUSH1 0x20 DUP2 LT ISZERO PUSH1 0xC8 JUMPI PUSH1 0x0 DUP1 REVERT JUMPDEST DUP2 ADD SWAP1 DUP1 DUP1 CALLDATALOAD SWAP1 PUSH1 0x20 ADD SWAP1 SWAP3 SWAP2 SWAP1 POP POP POP PUSH1 0xED JUMP JUMPDEST STOP JUMPDEST PUSH1 0x0 SLOAD DUP2 JUMP JUMPDEST PUSH1 0x0 NUMBER SWAP1 POP SWAP1 JUMP JUMPDEST DUP1 PUSH1 0x0 DUP2 SWAP1 SSTORE POP POP JUMP INVALID LOG1 PUSH6 0x627A7A723058 KECCAK256 MSIZE PUSH2 0x50D0 SSTORE 0x4f 0xcc 0xce 0xec STATICCALL 0xa6 SLT PUSH13 0x37439D8E227CD8DA70712D407D PC 0xce LOG0 SSTORE 0x2e 0x2b STOP 0x29 "
				},
				"gasEstimates": {
					"creation": {
						"codeDepositCost": "58200",
						"executionCost": "5117",
						"totalCost": "63317"
					},
					"external": {
						"count()": "394",
						"getBlockNumber()": "223",
						"setCount(uint256)": "20275"
					}
				},
				"methodIdentifiers": {
					"count()": "06661abd",
					"getBlockNumber()": "42cbb15c",
					"setCount(uint256)": "d14e62b8"
				}
			},
			"userdoc": {
				"methods": {}
			}
		}
	}
}